{
  "_format": "hh-sol-artifact-1",
  "contractName": "NFTPoll",
  "sourceName": "contracts/NFTPoll.sol",
  "abi": [
    {
      "inputs": [],
      "stateMutability": "nonpayable",
      "type": "constructor"
    },
    {
      "anonymous": false,
      "inputs": [
        {
          "indexed": true,
          "internalType": "address",
          "name": "owner",
          "type": "address"
        },
        {
          "indexed": true,
          "internalType": "address",
          "name": "approved",
          "type": "address"
        },
        {
          "indexed": true,
          "internalType": "uint256",
          "name": "tokenId",
          "type": "uint256"
        }
      ],
      "name": "Approval",
      "type": "event"
    },
    {
      "anonymous": false,
      "inputs": [
        {
          "indexed": true,
          "internalType": "address",
          "name": "owner",
          "type": "address"
        },
        {
          "indexed": true,
          "internalType": "address",
          "name": "operator",
          "type": "address"
        },
        {
          "indexed": false,
          "internalType": "bool",
          "name": "approved",
          "type": "bool"
        }
      ],
      "name": "ApprovalForAll",
      "type": "event"
    },
    {
      "anonymous": false,
      "inputs": [
        {
          "indexed": true,
          "internalType": "address",
          "name": "from",
          "type": "address"
        },
        {
          "indexed": true,
          "internalType": "address",
          "name": "to",
          "type": "address"
        },
        {
          "indexed": true,
          "internalType": "uint256",
          "name": "tokenId",
          "type": "uint256"
        }
      ],
      "name": "Transfer",
      "type": "event"
    },
    {
      "inputs": [],
      "name": "_tokenIds",
      "outputs": [
        {
          "internalType": "uint256",
          "name": "_value",
          "type": "uint256"
        }
      ],
      "stateMutability": "view",
      "type": "function"
    },
    {
      "inputs": [
        {
          "internalType": "address",
          "name": "to",
          "type": "address"
        },
        {
          "internalType": "uint256",
          "name": "tokenId",
          "type": "uint256"
        }
      ],
      "name": "approve",
      "outputs": [],
      "stateMutability": "nonpayable",
      "type": "function"
    },
    {
      "inputs": [
        {
          "internalType": "address",
          "name": "owner",
          "type": "address"
        }
      ],
      "name": "balanceOf",
      "outputs": [
        {
          "internalType": "uint256",
          "name": "",
          "type": "uint256"
        }
      ],
      "stateMutability": "view",
      "type": "function"
    },
    {
      "inputs": [],
      "name": "conclude",
      "outputs": [],
      "stateMutability": "nonpayable",
      "type": "function"
    },
    {
      "inputs": [],
      "name": "concluded",
      "outputs": [
        {
          "internalType": "bool",
          "name": "",
          "type": "bool"
        }
      ],
      "stateMutability": "view",
      "type": "function"
    },
    {
      "inputs": [],
      "name": "countNo",
      "outputs": [
        {
          "internalType": "uint256",
          "name": "",
          "type": "uint256"
        }
      ],
      "stateMutability": "view",
      "type": "function"
    },
    {
      "inputs": [],
      "name": "countYes",
      "outputs": [
        {
          "internalType": "uint256",
          "name": "",
          "type": "uint256"
        }
      ],
      "stateMutability": "view",
      "type": "function"
    },
    {
      "inputs": [
        {
          "internalType": "string",
          "name": "_proposal",
          "type": "string"
        }
      ],
      "name": "createProposal",
      "outputs": [],
      "stateMutability": "nonpayable",
      "type": "function"
    },
    {
      "inputs": [],
      "name": "createToken",
      "outputs": [
        {
          "internalType": "uint256",
          "name": "",
          "type": "uint256"
        }
      ],
      "stateMutability": "nonpayable",
      "type": "function"
    },
    {
      "inputs": [
        {
          "internalType": "uint256",
          "name": "tokenId",
          "type": "uint256"
        }
      ],
      "name": "getApproved",
      "outputs": [
        {
          "internalType": "address",
          "name": "",
          "type": "address"
        }
      ],
      "stateMutability": "view",
      "type": "function"
    },
    {
      "inputs": [],
      "name": "getResult",
      "outputs": [
        {
          "internalType": "uint256",
          "name": "cYes",
          "type": "uint256"
        },
        {
          "internalType": "uint256",
          "name": "cNo",
          "type": "uint256"
        }
      ],
      "stateMutability": "view",
      "type": "function"
    },
    {
      "inputs": [
        {
          "internalType": "address",
          "name": "owner",
          "type": "address"
        },
        {
          "internalType": "address",
          "name": "operator",
          "type": "address"
        }
      ],
      "name": "isApprovedForAll",
      "outputs": [
        {
          "internalType": "bool",
          "name": "",
          "type": "bool"
        }
      ],
      "stateMutability": "view",
      "type": "function"
    },
    {
      "inputs": [],
      "name": "name",
      "outputs": [
        {
          "internalType": "string",
          "name": "",
          "type": "string"
        }
      ],
      "stateMutability": "view",
      "type": "function"
    },
    {
      "inputs": [],
      "name": "owner",
      "outputs": [
        {
          "internalType": "address",
          "name": "",
          "type": "address"
        }
      ],
      "stateMutability": "view",
      "type": "function"
    },
    {
      "inputs": [
        {
          "internalType": "uint256",
          "name": "tokenId",
          "type": "uint256"
        }
      ],
      "name": "ownerOf",
      "outputs": [
        {
          "internalType": "address",
          "name": "",
          "type": "address"
        }
      ],
      "stateMutability": "view",
      "type": "function"
    },
    {
      "inputs": [],
      "name": "proposal",
      "outputs": [
        {
          "internalType": "string",
          "name": "",
          "type": "string"
        }
      ],
      "stateMutability": "view",
      "type": "function"
    },
    {
      "inputs": [
        {
          "internalType": "address",
          "name": "from",
          "type": "address"
        },
        {
          "internalType": "address",
          "name": "to",
          "type": "address"
        },
        {
          "internalType": "uint256",
          "name": "tokenId",
          "type": "uint256"
        }
      ],
      "name": "safeTransferFrom",
      "outputs": [],
      "stateMutability": "nonpayable",
      "type": "function"
    },
    {
      "inputs": [
        {
          "internalType": "address",
          "name": "from",
          "type": "address"
        },
        {
          "internalType": "address",
          "name": "to",
          "type": "address"
        },
        {
          "internalType": "uint256",
          "name": "tokenId",
          "type": "uint256"
        },
        {
          "internalType": "bytes",
          "name": "data",
          "type": "bytes"
        }
      ],
      "name": "safeTransferFrom",
      "outputs": [],
      "stateMutability": "nonpayable",
      "type": "function"
    },
    {
      "inputs": [
        {
          "internalType": "address",
          "name": "operator",
          "type": "address"
        },
        {
          "internalType": "bool",
          "name": "approved",
          "type": "bool"
        }
      ],
      "name": "setApprovalForAll",
      "outputs": [],
      "stateMutability": "nonpayable",
      "type": "function"
    },
    {
      "inputs": [
        {
          "internalType": "bytes4",
          "name": "interfaceId",
          "type": "bytes4"
        }
      ],
      "name": "supportsInterface",
      "outputs": [
        {
          "internalType": "bool",
          "name": "",
          "type": "bool"
        }
      ],
      "stateMutability": "view",
      "type": "function"
    },
    {
      "inputs": [],
      "name": "symbol",
      "outputs": [
        {
          "internalType": "string",
          "name": "",
          "type": "string"
        }
      ],
      "stateMutability": "view",
      "type": "function"
    },
    {
      "inputs": [
        {
          "internalType": "uint256",
          "name": "tokenId",
          "type": "uint256"
        }
      ],
      "name": "tokenURI",
      "outputs": [
        {
          "internalType": "string",
          "name": "",
          "type": "string"
        }
      ],
      "stateMutability": "view",
      "type": "function"
    },
    {
      "inputs": [
        {
          "internalType": "address",
          "name": "from",
          "type": "address"
        },
        {
          "internalType": "address",
          "name": "to",
          "type": "address"
        },
        {
          "internalType": "uint256",
          "name": "tokenId",
          "type": "uint256"
        }
      ],
      "name": "transferFrom",
      "outputs": [],
      "stateMutability": "nonpayable",
      "type": "function"
    },
    {
      "inputs": [
        {
          "internalType": "bool",
          "name": "side",
          "type": "bool"
        }
      ],
      "name": "vote",
      "outputs": [],
      "stateMutability": "nonpayable",
      "type": "function"
    },
    {
      "inputs": [
        {
          "internalType": "uint256",
          "name": "",
          "type": "uint256"
        }
      ],
      "name": "voters",
      "outputs": [
        {
          "internalType": "address",
          "name": "",
          "type": "address"
        }
      ],
      "stateMutability": "view",
      "type": "function"
    },
    {
      "inputs": [
        {
          "internalType": "address",
          "name": "",
          "type": "address"
        }
      ],
      "name": "votesPerAddress",
      "outputs": [
        {
          "internalType": "uint256",
          "name": "",
          "type": "uint256"
        }
      ],
      "stateMutability": "view",
      "type": "function"
    }
  ],
  "bytecode": "0x60806040526000600b556000600c553480156200001b57600080fd5b506040518060400160405280600a81526020017f5445535420544f4b454e000000000000000000000000000000000000000000008152506040518060400160405280600481526020017f54455354000000000000000000000000000000000000000000000000000000008152508160009080519060200190620000a092919062000103565b508060019080519060200190620000b992919062000103565b50505033600d60006101000a81548173ffffffffffffffffffffffffffffffffffffffff021916908373ffffffffffffffffffffffffffffffffffffffff16021790555062000218565b8280546200011190620001b3565b90600052602060002090601f01602090048101928262000135576000855562000181565b82601f106200015057805160ff191683800117855562000181565b8280016001018555821562000181579182015b828111156200018057825182559160200191906001019062000163565b5b50905062000190919062000194565b5090565b5b80821115620001af57600081600090555060010162000195565b5090565b60006002820490506001821680620001cc57607f821691505b60208210811415620001e357620001e2620001e9565b5b50919050565b7f4e487b7100000000000000000000000000000000000000000000000000000000600052602260045260246000fd5b61345980620002286000396000f3fe608060405234801561001057600080fd5b506004361061018e5760003560e01c806375c41bbd116100de578063aa46a40011610097578063da58c7d911610071578063da58c7d914610485578063de292789146104b5578063e5f92973146104d4578063e985e9c5146104de5761018e565b8063aa46a4001461041b578063b88d4fde14610439578063c87b56dd146104555761018e565b806375c41bbd14610357578063810fd980146103755780638da5cb5b146103a557806395d89b41146103c35780639cbf9e36146103e1578063a22cb465146103ff5761018e565b80632eba12cc1161014b5780634b9f5c98116101255780634b9f5c98146102bd5780636352211e146102d957806370a0823114610309578063753ec103146103395761018e565b80632eba12cc1461026757806342842e0e1461028557806349c2a1a6146102a15761018e565b806301ffc9a71461019357806306fdde03146101c3578063081812fc146101e1578063095ea7b31461021157806323b872dd1461022d5780632b0b5c8f14610249575b600080fd5b6101ad60048036038101906101a891906126f8565b61050e565b6040516101ba9190612e19565b60405180910390f35b6101cb6105f0565b6040516101d89190612e34565b60405180910390f35b6101fb60048036038101906101f6919061278b565b610682565b6040516102089190612db2565b60405180910390f35b61022b60048036038101906102269190612693565b6106c8565b005b6102476004803603810190610242919061258d565b6107e0565b005b610251610840565b60405161025e9190613056565b60405180910390f35b61026f610846565b60405161027c9190613056565b60405180910390f35b61029f600480360381019061029a919061258d565b61084c565b005b6102bb60048036038101906102b6919061274a565b61086c565b005b6102d760048036038101906102d291906126cf565b610941565b005b6102f360048036038101906102ee919061278b565b610c12565b6040516103009190612db2565b60405180910390f35b610323600480360381019061031e9190612528565b610c99565b6040516103309190613056565b60405180910390f35b610341610d51565b60405161034e9190612e34565b60405180910390f35b61035f610ddf565b60405161036c9190612e19565b60405180910390f35b61038f600480360381019061038a9190612528565b610df2565b60405161039c9190613056565b60405180910390f35b6103ad610e0a565b6040516103ba9190612db2565b60405180910390f35b6103cb610e30565b6040516103d89190612e34565b60405180910390f35b6103e9610ec2565b6040516103f69190613056565b60405180910390f35b61041960048036038101906104149190612657565b610eed565b005b610423610f03565b6040516104309190613056565b60405180910390f35b610453600480360381019061044e91906125dc565b610f0f565b005b61046f600480360381019061046a919061278b565b610f71565b60405161047c9190612e34565b60405180910390f35b61049f600480360381019061049a919061278b565b611084565b6040516104ac9190612db2565b60405180910390f35b6104bd6110c3565b6040516104cb929190613071565b60405180910390f35b6104dc6110d4565b005b6104f860048036038101906104f39190612551565b61124e565b6040516105059190612e19565b60405180910390f35b60007f80ac58cd000000000000000000000000000000000000000000000000000000007bffffffffffffffffffffffffffffffffffffffffffffffffffffffff1916827bffffffffffffffffffffffffffffffffffffffffffffffffffffffff191614806105d957507f5b5e139f000000000000000000000000000000000000000000000000000000007bffffffffffffffffffffffffffffffffffffffffffffffffffffffff1916827bffffffffffffffffffffffffffffffffffffffffffffffffffffffff1916145b806105e957506105e8826112e2565b5b9050919050565b6060600080546105ff906132ae565b80601f016020809104026020016040519081016040528092919081815260200182805461062b906132ae565b80156106785780601f1061064d57610100808354040283529160200191610678565b820191906000526020600020905b81548152906001019060200180831161065b57829003601f168201915b5050505050905090565b600061068d8261134c565b6004600083815260200190815260200160002060009054906101000a900473ffffffffffffffffffffffffffffffffffffffff169050919050565b60006106d382610c12565b90508073ffffffffffffffffffffffffffffffffffffffff168373ffffffffffffffffffffffffffffffffffffffff161415610744576040517f08c379a000000000000000000000000000000000000000000000000000000000815260040161073b90612fd6565b60405180910390fd5b8073ffffffffffffffffffffffffffffffffffffffff16610763611397565b73ffffffffffffffffffffffffffffffffffffffff16148061079257506107918161078c611397565b61124e565b5b6107d1576040517f08c379a00000000000000000000000000000000000000000000000000000000081526004016107c890613016565b60405180910390fd5b6107db838361139f565b505050565b6107f16107eb611397565b82611458565b610830576040517f08c379a000000000000000000000000000000000000000000000000000000000815260040161082790612e56565b60405180910390fd5b61083b8383836114ed565b505050565b600c5481565b600b5481565b61086783838360405180602001604052806000815250610f0f565b505050565b600d60009054906101000a900473ffffffffffffffffffffffffffffffffffffffff1673ffffffffffffffffffffffffffffffffffffffff163373ffffffffffffffffffffffffffffffffffffffff16146108fc576040517f08c379a00000000000000000000000000000000000000000000000000000000081526004016108f390612e76565b60405180910390fd5b6000600b819055506000600c81905550806008908051906020019061092292919061234c565b506000600960006101000a81548160ff02191690831515021790555050565b600d60009054906101000a900473ffffffffffffffffffffffffffffffffffffffff1673ffffffffffffffffffffffffffffffffffffffff163373ffffffffffffffffffffffffffffffffffffffff1614156109d2576040517f08c379a00000000000000000000000000000000000000000000000000000000081526004016109c990612ff6565b60405180910390fd5b60001515600960009054906101000a900460ff16151514610a28576040517f08c379a0000000000000000000000000000000000000000000000000000000008152600401610a1f90613036565b60405180910390fd5b6000610a3333610c99565b905060008111610a78576040517f08c379a0000000000000000000000000000000000000000000000000000000008152600401610a6f90612f36565b60405180910390fd5b6000600a60003373ffffffffffffffffffffffffffffffffffffffff1673ffffffffffffffffffffffffffffffffffffffff16815260200190815260200160002054905060008183610aca91906131c4565b905060008111610b0f576040517f08c379a0000000000000000000000000000000000000000000000000000000008152600401610b0690612f96565b60405180910390fd5b6001600a60003373ffffffffffffffffffffffffffffffffffffffff1673ffffffffffffffffffffffffffffffffffffffff1681526020019081526020016000206000828254610b5f919061316e565b92505081905550600e339080600181540180825580915050600190039060005260206000200160009091909190916101000a81548173ffffffffffffffffffffffffffffffffffffffff021916908373ffffffffffffffffffffffffffffffffffffffff160217905550600115158415151415610bf357600b6000815480929190610be9906132e0565b9190505550610c0c565b600c6000815480929190610c06906132e0565b91905055505b50505050565b600080610c1e836117e7565b9050600073ffffffffffffffffffffffffffffffffffffffff168173ffffffffffffffffffffffffffffffffffffffff161415610c90576040517f08c379a0000000000000000000000000000000000000000000000000000000008152600401610c8790612fb6565b60405180910390fd5b80915050919050565b60008073ffffffffffffffffffffffffffffffffffffffff168273ffffffffffffffffffffffffffffffffffffffff161415610d0a576040517f08c379a0000000000000000000000000000000000000000000000000000000008152600401610d0190612f56565b60405180910390fd5b600360008373ffffffffffffffffffffffffffffffffffffffff1673ffffffffffffffffffffffffffffffffffffffff168152602001908152602001600020549050919050565b60088054610d5e906132ae565b80601f0160208091040260200160405190810160405280929190818152602001828054610d8a906132ae565b8015610dd75780601f10610dac57610100808354040283529160200191610dd7565b820191906000526020600020905b815481529060010190602001808311610dba57829003601f168201915b505050505081565b600960009054906101000a900460ff1681565b600a6020528060005260406000206000915090505481565b600d60009054906101000a900473ffffffffffffffffffffffffffffffffffffffff1681565b606060018054610e3f906132ae565b80601f0160208091040260200160405190810160405280929190818152602001828054610e6b906132ae565b8015610eb85780601f10610e8d57610100808354040283529160200191610eb8565b820191906000526020600020905b815481529060010190602001808311610e9b57829003601f168201915b5050505050905090565b6000610ece6007611824565b6000610eda600761183a565b9050610ee63382611848565b8091505090565b610eff610ef8611397565b8383611a66565b5050565b60078060000154905081565b610f20610f1a611397565b83611458565b610f5f576040517f08c379a0000000000000000000000000000000000000000000000000000000008152600401610f5690612e56565b60405180910390fd5b610f6b84848484611bd3565b50505050565b6060610f7c8261134c565b6000600660008481526020019081526020016000208054610f9c906132ae565b80601f0160208091040260200160405190810160405280929190818152602001828054610fc8906132ae565b80156110155780601f10610fea57610100808354040283529160200191611015565b820191906000526020600020905b815481529060010190602001808311610ff857829003601f168201915b505050505090506000611026611c2f565b905060008151141561103c57819250505061107f565b600082511115611071578082604051602001611059929190612d8e565b6040516020818303038152906040529250505061107f565b61107a84611c46565b925050505b919050565b600e818154811061109457600080fd5b906000526020600020016000915054906101000a900473ffffffffffffffffffffffffffffffffffffffff1681565b600080600b54600c54915091509091565b600d60009054906101000a900473ffffffffffffffffffffffffffffffffffffffff1673ffffffffffffffffffffffffffffffffffffffff163373ffffffffffffffffffffffffffffffffffffffff1614611164576040517f08c379a000000000000000000000000000000000000000000000000000000000815260040161115b90612e76565b60405180910390fd5b6001600960006101000a81548160ff02191690831515021790555060005b600e8054905081101561124b576000600a6000600e84815481106111cf577f4e487b7100000000000000000000000000000000000000000000000000000000600052603260045260246000fd5b9060005260206000200160009054906101000a900473ffffffffffffffffffffffffffffffffffffffff1673ffffffffffffffffffffffffffffffffffffffff1673ffffffffffffffffffffffffffffffffffffffff168152602001908152602001600020819055508080611243906132e0565b915050611182565b50565b6000600560008473ffffffffffffffffffffffffffffffffffffffff1673ffffffffffffffffffffffffffffffffffffffff16815260200190815260200160002060008373ffffffffffffffffffffffffffffffffffffffff1673ffffffffffffffffffffffffffffffffffffffff16815260200190815260200160002060009054906101000a900460ff16905092915050565b60007f01ffc9a7000000000000000000000000000000000000000000000000000000007bffffffffffffffffffffffffffffffffffffffffffffffffffffffff1916827bffffffffffffffffffffffffffffffffffffffffffffffffffffffff1916149050919050565b61135581611cae565b611394576040517f08c379a000000000000000000000000000000000000000000000000000000000815260040161138b90612fb6565b60405180910390fd5b50565b600033905090565b816004600083815260200190815260200160002060006101000a81548173ffffffffffffffffffffffffffffffffffffffff021916908373ffffffffffffffffffffffffffffffffffffffff160217905550808273ffffffffffffffffffffffffffffffffffffffff1661141283610c12565b73ffffffffffffffffffffffffffffffffffffffff167f8c5be1e5ebec7d5bd14f71427d1e84f3dd0314c0f7b2291e5b200ac8c7c3b92560405160405180910390a45050565b60008061146483610c12565b90508073ffffffffffffffffffffffffffffffffffffffff168473ffffffffffffffffffffffffffffffffffffffff1614806114a657506114a5818561124e565b5b806114e457508373ffffffffffffffffffffffffffffffffffffffff166114cc84610682565b73ffffffffffffffffffffffffffffffffffffffff16145b91505092915050565b8273ffffffffffffffffffffffffffffffffffffffff1661150d82610c12565b73ffffffffffffffffffffffffffffffffffffffff1614611563576040517f08c379a000000000000000000000000000000000000000000000000000000000815260040161155a90612eb6565b60405180910390fd5b600073ffffffffffffffffffffffffffffffffffffffff168273ffffffffffffffffffffffffffffffffffffffff1614156115d3576040517f08c379a00000000000000000000000000000000000000000000000000000000081526004016115ca90612ef6565b60405180910390fd5b6115e08383836001611cef565b8273ffffffffffffffffffffffffffffffffffffffff1661160082610c12565b73ffffffffffffffffffffffffffffffffffffffff1614611656576040517f08c379a000000000000000000000000000000000000000000000000000000000815260040161164d90612eb6565b60405180910390fd5b6004600082815260200190815260200160002060006101000a81549073ffffffffffffffffffffffffffffffffffffffff02191690556001600360008573ffffffffffffffffffffffffffffffffffffffff1673ffffffffffffffffffffffffffffffffffffffff168152602001908152602001600020600082825403925050819055506001600360008473ffffffffffffffffffffffffffffffffffffffff1673ffffffffffffffffffffffffffffffffffffffff16815260200190815260200160002060008282540192505081905550816002600083815260200190815260200160002060006101000a81548173ffffffffffffffffffffffffffffffffffffffff021916908373ffffffffffffffffffffffffffffffffffffffff160217905550808273ffffffffffffffffffffffffffffffffffffffff168473ffffffffffffffffffffffffffffffffffffffff167fddf252ad1be2c89b69c2b068fc378daa952ba7f163c4a11628f55a4df523b3ef60405160405180910390a46117e28383836001611e15565b505050565b60006002600083815260200190815260200160002060009054906101000a900473ffffffffffffffffffffffffffffffffffffffff169050919050565b6001816000016000828254019250508190555050565b600081600001549050919050565b600073ffffffffffffffffffffffffffffffffffffffff168273ffffffffffffffffffffffffffffffffffffffff1614156118b8576040517f08c379a00000000000000000000000000000000000000000000000000000000081526004016118af90612f76565b60405180910390fd5b6118c181611cae565b15611901576040517f08c379a00000000000000000000000000000000000000000000000000000000081526004016118f890612ed6565b60405180910390fd5b61190f600083836001611cef565b61191881611cae565b15611958576040517f08c379a000000000000000000000000000000000000000000000000000000000815260040161194f90612ed6565b60405180910390fd5b6001600360008473ffffffffffffffffffffffffffffffffffffffff1673ffffffffffffffffffffffffffffffffffffffff16815260200190815260200160002060008282540192505081905550816002600083815260200190815260200160002060006101000a81548173ffffffffffffffffffffffffffffffffffffffff021916908373ffffffffffffffffffffffffffffffffffffffff160217905550808273ffffffffffffffffffffffffffffffffffffffff16600073ffffffffffffffffffffffffffffffffffffffff167fddf252ad1be2c89b69c2b068fc378daa952ba7f163c4a11628f55a4df523b3ef60405160405180910390a4611a62600083836001611e15565b5050565b8173ffffffffffffffffffffffffffffffffffffffff168373ffffffffffffffffffffffffffffffffffffffff161415611ad5576040517f08c379a0000000000000000000000000000000000000000000000000000000008152600401611acc90612f16565b60405180910390fd5b80600560008573ffffffffffffffffffffffffffffffffffffffff1673ffffffffffffffffffffffffffffffffffffffff16815260200190815260200160002060008473ffffffffffffffffffffffffffffffffffffffff1673ffffffffffffffffffffffffffffffffffffffff16815260200190815260200160002060006101000a81548160ff0219169083151502179055508173ffffffffffffffffffffffffffffffffffffffff168373ffffffffffffffffffffffffffffffffffffffff167f17307eab39ab6107e8899845ad3d59bd9653f200f220920489ca2b5937696c3183604051611bc69190612e19565b60405180910390a3505050565b611bde8484846114ed565b611bea84848484611e1b565b611c29576040517f08c379a0000000000000000000000000000000000000000000000000000000008152600401611c2090612e96565b60405180910390fd5b50505050565b606060405180602001604052806000815250905090565b6060611c518261134c565b6000611c5b611c2f565b90506000815111611c7b5760405180602001604052806000815250611ca6565b80611c8584611fb2565b604051602001611c96929190612d8e565b6040516020818303038152906040525b915050919050565b60008073ffffffffffffffffffffffffffffffffffffffff16611cd0836117e7565b73ffffffffffffffffffffffffffffffffffffffff1614159050919050565b6001811115611e0f57600073ffffffffffffffffffffffffffffffffffffffff168473ffffffffffffffffffffffffffffffffffffffff1614611d835780600360008673ffffffffffffffffffffffffffffffffffffffff1673ffffffffffffffffffffffffffffffffffffffff1681526020019081526020016000206000828254611d7b91906131c4565b925050819055505b600073ffffffffffffffffffffffffffffffffffffffff168373ffffffffffffffffffffffffffffffffffffffff1614611e0e5780600360008573ffffffffffffffffffffffffffffffffffffffff1673ffffffffffffffffffffffffffffffffffffffff1681526020019081526020016000206000828254611e06919061316e565b925050819055505b5b50505050565b50505050565b6000611e3c8473ffffffffffffffffffffffffffffffffffffffff166120d6565b15611fa5578373ffffffffffffffffffffffffffffffffffffffff1663150b7a02611e65611397565b8786866040518563ffffffff1660e01b8152600401611e879493929190612dcd565b602060405180830381600087803b158015611ea157600080fd5b505af1925050508015611ed257506040513d601f19601f82011682018060405250810190611ecf9190612721565b60015b611f55573d8060008114611f02576040519150601f19603f3d011682016040523d82523d6000602084013e611f07565b606091505b50600081511415611f4d576040517f08c379a0000000000000000000000000000000000000000000000000000000008152600401611f4490612e96565b60405180910390fd5b805181602001fd5b63150b7a0260e01b7bffffffffffffffffffffffffffffffffffffffffffffffffffffffff1916817bffffffffffffffffffffffffffffffffffffffffffffffffffffffff191614915050611faa565b600190505b949350505050565b606060006001611fc184612115565b01905060008167ffffffffffffffff811115612006577f4e487b7100000000000000000000000000000000000000000000000000000000600052604160045260246000fd5b6040519080825280601f01601f1916602001820160405280156120385781602001600182028036833780820191505090505b509050600082602001820190505b6001156120cb578080600190039150507f3031323334353637383961626364656600000000000000000000000000000000600a86061a8153600a85816120b5577f4e487b7100000000000000000000000000000000000000000000000000000000600052601260045260246000fd5b04945060008514156120c6576120cb565b612046565b819350505050919050565b6000808273ffffffffffffffffffffffffffffffffffffffff16803b806020016040519081016040528181526000908060200190933c51119050919050565b600080600090507a184f03e93ff9f4daa797ed6e38ed64bf6a1f0100000000000000008310612199577a184f03e93ff9f4daa797ed6e38ed64bf6a1f010000000000000000838161218f577f4e487b7100000000000000000000000000000000000000000000000000000000600052601260045260246000fd5b0492506040810190505b6d04ee2d6d415b85acef810000000083106121fc576d04ee2d6d415b85acef810000000083816121f2577f4e487b7100000000000000000000000000000000000000000000000000000000600052601260045260246000fd5b0492506020810190505b662386f26fc10000831061225157662386f26fc100008381612247577f4e487b7100000000000000000000000000000000000000000000000000000000600052601260045260246000fd5b0492506010810190505b6305f5e10083106122a0576305f5e1008381612296577f4e487b7100000000000000000000000000000000000000000000000000000000600052601260045260246000fd5b0492506008810190505b61271083106122eb5761271083816122e1577f4e487b7100000000000000000000000000000000000000000000000000000000600052601260045260246000fd5b0492506004810190505b60648310612334576064838161232a577f4e487b7100000000000000000000000000000000000000000000000000000000600052601260045260246000fd5b0492506002810190505b600a8310612343576001810190505b80915050919050565b828054612358906132ae565b90600052602060002090601f01602090048101928261237a57600085556123c1565b82601f1061239357805160ff19168380011785556123c1565b828001600101855582156123c1579182015b828111156123c05782518255916020019190600101906123a5565b5b5090506123ce91906123d2565b5090565b5b808211156123eb5760008160009055506001016123d3565b5090565b60006124026123fd846130cb565b61309a565b90508281526020810184848401111561241a57600080fd5b61242584828561326c565b509392505050565b600061244061243b846130fb565b61309a565b90508281526020810184848401111561245857600080fd5b61246384828561326c565b509392505050565b60008135905061247a816133c7565b92915050565b60008135905061248f816133de565b92915050565b6000813590506124a4816133f5565b92915050565b6000815190506124b9816133f5565b92915050565b600082601f8301126124d057600080fd5b81356124e08482602086016123ef565b91505092915050565b600082601f8301126124fa57600080fd5b813561250a84826020860161242d565b91505092915050565b6000813590506125228161340c565b92915050565b60006020828403121561253a57600080fd5b60006125488482850161246b565b91505092915050565b6000806040838503121561256457600080fd5b60006125728582860161246b565b92505060206125838582860161246b565b9150509250929050565b6000806000606084860312156125a257600080fd5b60006125b08682870161246b565b93505060206125c18682870161246b565b92505060406125d286828701612513565b9150509250925092565b600080600080608085870312156125f257600080fd5b60006126008782880161246b565b94505060206126118782880161246b565b935050604061262287828801612513565b925050606085013567ffffffffffffffff81111561263f57600080fd5b61264b878288016124bf565b91505092959194509250565b6000806040838503121561266a57600080fd5b60006126788582860161246b565b925050602061268985828601612480565b9150509250929050565b600080604083850312156126a657600080fd5b60006126b48582860161246b565b92505060206126c585828601612513565b9150509250929050565b6000602082840312156126e157600080fd5b60006126ef84828501612480565b91505092915050565b60006020828403121561270a57600080fd5b600061271884828501612495565b91505092915050565b60006020828403121561273357600080fd5b6000612741848285016124aa565b91505092915050565b60006020828403121561275c57600080fd5b600082013567ffffffffffffffff81111561277657600080fd5b612782848285016124e9565b91505092915050565b60006020828403121561279d57600080fd5b60006127ab84828501612513565b91505092915050565b6127bd816131f8565b82525050565b6127cc8161320a565b82525050565b60006127dd8261312b565b6127e78185613141565b93506127f781856020860161327b565b612800816133b6565b840191505092915050565b600061281682613136565b6128208185613152565b935061283081856020860161327b565b612839816133b6565b840191505092915050565b600061284f82613136565b6128598185613163565b935061286981856020860161327b565b80840191505092915050565b6000612882602d83613152565b91507f4552433732313a2063616c6c6572206973206e6f7420746f6b656e206f776e6560008301527f72206f7220617070726f766564000000000000000000000000000000000000006020830152604082019050919050565b60006128e8601683613152565b91507f4f6e6c79204f776e65722063616e20646f2074686973000000000000000000006000830152602082019050919050565b6000612928603283613152565b91507f4552433732313a207472616e7366657220746f206e6f6e20455243373231526560008301527f63656976657220696d706c656d656e74657200000000000000000000000000006020830152604082019050919050565b600061298e602583613152565b91507f4552433732313a207472616e736665722066726f6d20696e636f72726563742060008301527f6f776e65720000000000000000000000000000000000000000000000000000006020830152604082019050919050565b60006129f4601c83613152565b91507f4552433732313a20746f6b656e20616c7265616479206d696e746564000000006000830152602082019050919050565b6000612a34602483613152565b91507f4552433732313a207472616e7366657220746f20746865207a65726f2061646460008301527f72657373000000000000000000000000000000000000000000000000000000006020830152604082019050919050565b6000612a9a601983613152565b91507f4552433732313a20617070726f766520746f2063616c6c6572000000000000006000830152602082019050919050565b6000612ada600d83613152565b91507f4e6f204e465473206f776e6564000000000000000000000000000000000000006000830152602082019050919050565b6000612b1a602983613152565b91507f4552433732313a2061646472657373207a65726f206973206e6f74206120766160008301527f6c6964206f776e657200000000000000000000000000000000000000000000006020830152604082019050919050565b6000612b80602083613152565b91507f4552433732313a206d696e7420746f20746865207a65726f20616464726573736000830152602082019050919050565b6000612bc0600d83613152565b91507f4e6f206d6f726520766f746573000000000000000000000000000000000000006000830152602082019050919050565b6000612c00601883613152565b91507f4552433732313a20696e76616c696420746f6b656e20494400000000000000006000830152602082019050919050565b6000612c40602183613152565b91507f4552433732313a20617070726f76616c20746f2063757272656e74206f776e6560008301527f72000000000000000000000000000000000000000000000000000000000000006020830152604082019050919050565b6000612ca6601183613152565b91507f6f776e65722063616e6e6f7420766f74650000000000000000000000000000006000830152602082019050919050565b6000612ce6603d83613152565b91507f4552433732313a20617070726f76652063616c6c6572206973206e6f7420746f60008301527f6b656e206f776e6572206f7220617070726f76656420666f7220616c6c0000006020830152604082019050919050565b6000612d4c600e83613152565b91507f566f746520636f6e636c756465640000000000000000000000000000000000006000830152602082019050919050565b612d8881613262565b82525050565b6000612d9a8285612844565b9150612da68284612844565b91508190509392505050565b6000602082019050612dc760008301846127b4565b92915050565b6000608082019050612de260008301876127b4565b612def60208301866127b4565b612dfc6040830185612d7f565b8181036060830152612e0e81846127d2565b905095945050505050565b6000602082019050612e2e60008301846127c3565b92915050565b60006020820190508181036000830152612e4e818461280b565b905092915050565b60006020820190508181036000830152612e6f81612875565b9050919050565b60006020820190508181036000830152612e8f816128db565b9050919050565b60006020820190508181036000830152612eaf8161291b565b9050919050565b60006020820190508181036000830152612ecf81612981565b9050919050565b60006020820190508181036000830152612eef816129e7565b9050919050565b60006020820190508181036000830152612f0f81612a27565b9050919050565b60006020820190508181036000830152612f2f81612a8d565b9050919050565b60006020820190508181036000830152612f4f81612acd565b9050919050565b60006020820190508181036000830152612f6f81612b0d565b9050919050565b60006020820190508181036000830152612f8f81612b73565b9050919050565b60006020820190508181036000830152612faf81612bb3565b9050919050565b60006020820190508181036000830152612fcf81612bf3565b9050919050565b60006020820190508181036000830152612fef81612c33565b9050919050565b6000602082019050818103600083015261300f81612c99565b9050919050565b6000602082019050818103600083015261302f81612cd9565b9050919050565b6000602082019050818103600083015261304f81612d3f565b9050919050565b600060208201905061306b6000830184612d7f565b92915050565b60006040820190506130866000830185612d7f565b6130936020830184612d7f565b9392505050565b6000604051905081810181811067ffffffffffffffff821117156130c1576130c0613387565b5b8060405250919050565b600067ffffffffffffffff8211156130e6576130e5613387565b5b601f19601f8301169050602081019050919050565b600067ffffffffffffffff82111561311657613115613387565b5b601f19601f8301169050602081019050919050565b600081519050919050565b600081519050919050565b600082825260208201905092915050565b600082825260208201905092915050565b600081905092915050565b600061317982613262565b915061318483613262565b9250827fffffffffffffffffffffffffffffffffffffffffffffffffffffffffffffffff038211156131b9576131b8613329565b5b828201905092915050565b60006131cf82613262565b91506131da83613262565b9250828210156131ed576131ec613329565b5b828203905092915050565b600061320382613242565b9050919050565b60008115159050919050565b60007fffffffff0000000000000000000000000000000000000000000000000000000082169050919050565b600073ffffffffffffffffffffffffffffffffffffffff82169050919050565b6000819050919050565b82818337600083830152505050565b60005b8381101561329957808201518184015260208101905061327e565b838111156132a8576000848401525b50505050565b600060028204905060018216806132c657607f821691505b602082108114156132da576132d9613358565b5b50919050565b60006132eb82613262565b91507fffffffffffffffffffffffffffffffffffffffffffffffffffffffffffffffff82141561331e5761331d613329565b5b600182019050919050565b7f4e487b7100000000000000000000000000000000000000000000000000000000600052601160045260246000fd5b7f4e487b7100000000000000000000000000000000000000000000000000000000600052602260045260246000fd5b7f4e487b7100000000000000000000000000000000000000000000000000000000600052604160045260246000fd5b6000601f19601f8301169050919050565b6133d0816131f8565b81146133db57600080fd5b50565b6133e78161320a565b81146133f257600080fd5b50565b6133fe81613216565b811461340957600080fd5b50565b61341581613262565b811461342057600080fd5b5056fea26469706673582212205ec72ace1d2a8aa08a51d5af3a9a5dbfa8aee5476db737bf958a97184805b5fb64736f6c63430008000033",
  "linkReferences": {},
  "deployedLinkReferences": {}
}